:100000000C9462000C948A000C948A000C948A0070
:100010000C948A000C948A000C948A000C94570368
:100020000C948A000C948A000C948A000C948A0028
:100030000C948A000C948A000C948A000C948A0018
:100040000C940D030C948A000C94DB020C94B50202
:100050000C948A000C948A000C948A000C948A00F8
:100060000C948A000C948A000000000023002600F3
:10007000290000000008000201000003040700003E
:1000800000000000000000000000250028002B00F8
:1000900000000000240027002A00040404040404D3
:1000A0000404020202020202030303030303010227
:1000B00004081020408001020408102001020408F6
:1000C0001020170411241FBECFEFD8E0DEBFCDBF34
:1000D00011E0A0E0B1E0EEE3F9E102C005900D927D
:1000E000A634B107D9F722E0A6E4B1E001C01D9221
:1000F000A83CB207E1F710E0C2E6D0E004C02197C7
:10010000FE010E94880CC136D107C9F70E9449043C
:100110000C949D0C0C940000CF92DF92EF92FF9212
:10012000CF93DF93EC01072E000C880B990B0E94F4
:10013000F80A6B017C0120E030E040E45FE30E94BC
:10014000A80B20E030E048E452E40E944E0A0E94EE
:10015000C00AC617D707D4F020E030E040EA5FE3DA
:10016000C701B6010E94A80B20E030E048E452E449
:100170000E944E0A20E030E040E85FE30E94DD0983
:100180000E94C00A21E06C177D070CF420E0822F4A
:1001900090E0DF91CF91FF90EF90DF90CF900895A6
:1001A0008F929F92AF92BF92CF92DF92EF92FF9287
:1001B0000F931F93CF93DF93FC0120813181E09156
:1001C0005B01F0915C0101E010E02E173F070CF09D
:1001D00043C0D901AA0FBB1FE0915901F0915A0108
:1001E000EA0FFB1FA080B180890100951095017076
:1001F000112720FD23C02CE93FEFEA016B017C01B0
:100200004901840E951EB401C5010E948C00892B02
:10021000C1F48C0E9D1EB401C5010E948C00892B77
:1002200049F5BE01680D791DC5010E948C0023E0CF
:1002300030E0892B41F40FEF1FEF0EC024E630E0D1
:10024000DCCF21E030E0F6018081918101968217B8
:1002500093079CF491838083C801DF91CF911F9114
:100260000F91FF90EF90DF90CF90BF90AF909F9055
:100270008F90089522E030E0E6CF11821082F701DE
:10028000808191810196E6CFAF92BF92CF92DF92AB
:10029000EF92FF920F931F93CF93DF936C017B013B
:1002A0008B01040F151FEB015E01AE18BF08C017CC
:1002B000D10759F06991D601ED91FC910190F0813F
:1002C000E02DC6010995892B79F7C501DF91CF9102
:1002D0001F910F91FF90EF90DF90CF90BF90AF9064
:1002E0000895FC01538D448D252F30E0842F90E03C
:1002F000821B930B541710F0CF9608950197089521
:10030000FC01918D828D981761F0A28DAE0FBF2FE9
:10031000B11D5D968C91928D9F5F9F73928F90E03F
:1003200008958FEF9FEF0895FC01918D828D9817AE
:1003300031F0828DE80FF11D858D90E008958FEFEB
:100340009FEF0895FC01918D228D892F90E0805CB4
:100350009F4F821B91098F73992708958DE591E036
:100360000E94A20121E0892B09F420E0822F089548
:1003700080E090E0892B29F00E94AE0181110C945D
:1003800000000895FC01A48DA80FB92FB11DA35A38
:10039000BF4F2C91848D90E001968F739927848FA5
:1003A000A689B7892C93A089B1898C9183708064C8
:1003B0008C93938D848D981306C00288F389E02D69
:1003C00080818F7D80830895EF92FF920F931F931A
:1003D000CF93DF93EC0181E0888F9B8D8C8D9813F8
:1003E0001AC0E889F989808185FF15C09FB7F89404
:1003F000EE89FF896083E889F98980818370806450
:1004000080839FBF81E090E0DF91CF911F910F919A
:10041000FF90EF900895F62E0B8D10E00F5F1F4FA9
:100420000F731127E02E8C8D8E110CC00FB607FCB8
:10043000FACFE889F989808185FFF5CFCE010E9446
:10044000C201F1CFEB8DEC0FFD2FF11DE35AFF4FF1
:10045000F0829FB7F8940B8FEA89FB8980818062D4
:10046000CFCFCF93DF93EC01888D8823B9F0AA8991
:10047000BB89E889F9898C9185FD03C0808186FD5F
:100480000DC00FB607FCF7CF8C9185FFF2CF8081AE
:1004900085FFEDCFCE010E94C201E9CFDF91CF9160
:1004A0000895833081F028F4813099F08230A9F0EA
:1004B00008958730A9F08830C9F08430B1F4809174
:1004C00080008F7D03C0809180008F7780938000B3
:1004D000089584B58F7784BD089584B58F7DFBCF53
:1004E0008091B0008F778093B00008958091B00024
:1004F0008F7DF9CF1F93CF93DF93282F30E0F90141
:10050000EE58FF4F8491F901E255FF4FD491F90164
:10051000E656FF4FC491CC23A9F0162F81110E94FB
:100520005102EC2FF0E0EE0FFF1FEA57FF4FA591AD
:10053000B4918FB7F894EC91111108C0D095DE23D7
:10054000DC938FBFDF91CF911F910895DE2BF8CF01
:10055000FC0101900020E9F73197AF01481B590BCE
:10056000BC018DE591E00C9444011F920F920FB6EF
:100570000F9211242F933F934F935F936F937F9329
:100580008F939F93AF93BF93EF93FF938DE591E08C
:100590000E94C201FF91EF91BF91AF919F918F9106
:1005A0007F916F915F914F913F912F910F900FBE6F
:1005B0000F901F9018951F920F920FB60F92112453
:1005C0002F938F939F93EF93FF93E0916D01F091A1
:1005D0006E018081E0917301F091740182FD1BC076
:1005E0009081809176018F5F8F73209177018217C0
:1005F00041F0E0917601F0E0E35AFE4F958F809351
:100600007601FF91EF919F918F912F910F900FBEE7
:100610000F901F9018958081F4CF1F920F920FB604
:100620000F9211242F933F938F939F93AF93BF9378
:1006300080914B0190914C01A0914D01B0914E01E0
:1006400030914A0123E0230F2D3758F50196A11D63
:10065000B11D20934A0180934B0190934C01A093CC
:100660004D01B0934E018091460190914701A091B8
:100670004801B09149010196A11DB11D8093460129
:1006800090934701A0934801B0934901BF91AF9166
:100690009F918F913F912F910F900FBE0F901F90C0
:1006A000189526E8230F0296A11DB11DD2CF1F92E7
:1006B0000F920FB60F9211242F933F934F935F9396
:1006C0006F937F938F939F93AF93BF93CF93DF935A
:1006D000EF93FF932091FA0130E0F901EE58FF4FBC
:1006E0008491F901E255FF4FD491F901E656FF4F8D
:1006F000C491CC2379F081110E945102EC2FF0E0DB
:10070000EE0FFF1FE859FF4FA591B491EC91ED2337
:1007100081E009F480E02091FD013091FE012F5F1E
:100720003F4F3093FE012093FD019091C702943614
:1007300018F095E09093FB019091FB01933009F440
:100740004CC0E0F4923011F19091FC01992319F022
:1007500081116BC02D9AFF91EF91DF91CF91BF91E5
:10076000AF919F918F917F916F915F914F913F9149
:100770002F910F900FBE0F901F901895943009F491
:1007800048C0953009F78111DFCF09C08111DCCF56
:100790002091FD013091FE012436310528F410929C
:1007A000FE011092FD01D0CF1092C702E091C70266
:1007B00091E09E0F9093C702F0E02091FD013091EF
:1007C000FE01EE0FFF1FE650FE4F36832583109289
:1007D000FE011092FD0193E019C0813009F0B4CF01
:1007E000E091C70291E09E0F9093C702F0E0209144
:1007F000FD013091FE01EE0FFF1FE650FE4F3683E4
:1008000025831092FE011092FD0194E09093FB016C
:100810009BCF882359F22091FD013091FE012536AE
:10082000310508F491CF95E0F1CF2D9894CFEDE507
:10083000F1E01382128288EE93E0A0E0B0E08483BE
:100840009583A683B78384E091E09183808385ECD0
:1008500090E09587848784EC90E09787868780EC8A
:1008600090E0918B808B81EC90E0938B828B82EC7B
:1008700090E0958B848B86EC90E0978B868B118E25
:10088000128E138E148EEAEFF1E08BE080831282D9
:100890000895CF93DF93CDB7DEB7AB970FB6F8943B
:1008A000DEBF0FBECDBF789484B5826084BD84B5B1
:1008B000816084BD85B5826085BD85B5816085BD5B
:1008C00080916E00816080936E0010928100809113
:1008D000810082608093810080918100816080939B
:1008E0008100809180008160809380008091B100C0
:1008F00084608093B1008091B00081608093B000EB
:1009000080917A00846080937A0080917A0082607E
:1009100080937A0080917A00816080937A00809140
:100920007A00806880937A001092C100E0916D0196
:10093000F0916E0182E08083E0916901F0916A019B
:100940001082E0916B01F0916C019FEC908310920A
:100950007501E0917101F091720196E09083E09150
:100960006F01F0917001908190619083E0916F012F
:10097000F0917001908198609083E0916F01F09107
:100980007001908190689083E0916F01F091700107
:1009900090819F7D9083F8948093B0008093B10004
:1009A00094E69093B3001092B20080937000789414
:1009B0008093FB011092C7028091FA0190E0FC0144
:1009C000E255FF4F249186569F4FFC018491882366
:1009D000C9F090E0880F991FFC01E057FF4F459147
:1009E0005491FC01EA57FF4FA591B4919FB7F89439
:1009F000FA0180812095822380838C91E22FE82365
:100A0000EC939FBFE0EBF0E02491ECE9F0E08491FF
:100A1000882399F090E0880F991FFC01E057FF4F61
:100A2000A591B491FC01EA57FF4F859194918FB73E
:100A3000F894EC91E22BEC938FBF60E082E00E948F
:100A40007A0222242394312C44244A94542C3201D7
:100A50008FEF91E090935A01809359018091C702E2
:100A600090E090935C0180935B018091FB01853065
:100A700009F08EC08091010290910202885891097C
:100A80008D35910508F0BDC08091C702843009F012
:100A90008CC080910302909104028097479708F0E0
:100AA00084C080910502909106020997099708F089
:100AB0007CC01092580110925701409253015092FD
:100AC000540160925501709256013092500120926B
:100AD0004F0182E191E00E94A802209153013091E0
:100AE0005401409155015091560119A28E010F5D9C
:100AF0001F4FCA01B9012AE030E040E050E00E94F7
:100B0000250C605DF80162938F01211531054105C7
:100B1000510579F7309719F0CF010E94A80283E3BD
:100B200091E00E94A8028091530190915401A091FC
:100B30005501B0915601892B8A2B8B2B61F486E3EA
:100B400091E00E94A80283E391E00E94A80261E084
:100B500082E00E947A028091530190915401A09109
:100B60005501B0915601892B8A2B8B2B61F48DE3B3
:100B700091E00E94A80283E391E00E94A80260E055
:100B800082E00E947A0282E08093FB011092C70209
:100B900080E090E0892B09F45BCF0E94AE018823AE
:100BA00009F456CF0E94000053CF8091C7028434CD
:100BB00040F18091030290910402825491098E9732
:100BC00000F590E080E040E050E0BA01FC01EB5F0E
:100BD000FD4F20813181295031092930310588F4B8
:100BE000FC01E95FFD4F208131812651310921311E
:100BF000310510F12081318126503109273031052E
:100C000098F18091C7028A3108F463C08091FF0196
:100C100090910002843F914060F51092580110922B
:100C200057014092530150925401609255017092C5
:100C3000560189E090E03FC1440F551F661F771FA2
:100C4000416004968038910509F6E0E2F0E0F09307
:100C50005801E0935701409353015093540160931E
:100C600055017093560131CF440F551F661F771FF2
:100C7000E8CF809101029091020285974B9748F549
:100C8000EAEFF1E082E090E040E050E0BA01A091AC
:100C9000C7029C012F5F3F4FA217130609F00CF407
:100CA000F2C021853285275031092730310508F0FF
:100CB000EAC023853485235131092F30310508F4EA
:100CC000D5C0238534852A5031092930310508F4EF
:100CD000D5C08091C7028A3108F43FC08091FF01DE
:100CE000909100028032934008F497CF80910102E6
:100CF00090910202C697869780F5809103029091A9
:100D00000402C697869748F5EAEFF1E083E090E0A9
:100D100040E050E0BA01A091C7029C012F5F3F4F15
:100D2000A217130609F00CF4D8C0238534852C5083
:100D300031092B30310508F0D0C025853685255284
:100D400031092B31310508F4BBC0258536852C507F
:100D500031092A30310508F4BBC08091C7028232C4
:100D600038F180910102909102020697079700F5F1
:100D7000EAEFF1E082E090E040E050E0BA01DC010F
:100D800011962091C7022A171B0609F00CF4D1C056
:100D9000218532852E5131092731310508F4B4C03F
:100DA000218532852C5031092B30310508F4BBC028
:100DB0008091C7028D3008F4EDC03BA22AA21A82AE
:100DC000198249E753E0BE016F5F7F4FCE018296E3
:100DD0000E94D000892B09F0DDC049E753E0BE0135
:100DE0006F5F7F4FCE0182960E94D000019709F07D
:100DF000D1C049E753E0BE016F5F7F4FCE018296BD
:100E00000E94D0008C01892B09F0C4C0812C912C48
:100E100054012091C7028AA19BA12817190609F045
:100E20000CF4A9C049E753E0BE016F5F7F4FCE01CC
:100E300082960E94D0007C0149E753E0BE016F5FBB
:100E40007F4FCE0182960E94D000F1E0EF16F104B0
:100E500009F088C0892B09F09DC0880C991CAA1C38
:100E6000BB1C689480F80F5F1F4FD3CF440F551FF2
:100E7000661F771F41600296349609CF440F551FB5
:100E8000661F771FF8CF0197959587959093580126
:100E9000809357010C972CF410925801109257012F
:100EA00018CF4093530150935401609355017093B0
:100EB000560182E090E09093500180934F0109CE5B
:100EC000440F551F661F771F41600296349623CF4B
:100ED000440F551F661F771FF8CF0197959587958B
:100EE00090935801809357010C972CF4109258015D
:100EF0001092570132CF40935301509354016093A5
:100F000055017093560195CE440F551F661F771FEC
:100F100041602385348534962350310925303105CD
:100F200038F402962CCF440F551F661F771FF1CF60
:100F3000CD0101979595879590935801809357011E
:100F400040972CF4109258011092570131CF4093E2
:100F500053015093540160935501709356018AE0F8
:100F600090E0A9CFEF28B1F40197A1F4880C991C67
:100F7000AA1CBB1C78CF1093580100935701809294
:100F8000530190925401A0925501B092560183E012
:100F900090E091CF80915B0190915C011816190649
:100FA0000CF082C0E0915901F0915A013BA22AA2B3
:100FB0008281938189974E9708F076C082E090E015
:100FC0009BA38AA3848195810B970A9708F06CC034
:100FD00083E090E09BA38AA31A8219824CEB51E034
:100FE000BE016F5F7F4FCE0182960E94D0008C01C0
:100FF000892B09F059C04CEB51E0BE016F5F7F4F68
:10100000CE0182960E94D000019709F04DC0812C3C
:10101000912C540120915B0130915C018AA19BA12C
:10102000821793070CF0B0C04CEB51E0BE016F5F2C
:101030007F4FCE0182960E94D0007C0103301105C3
:1010400039F14CEB51E0BE016F5F7F4FCE018296CC
:101050000E94D0006C010330110561F44CEB51E0AB
:10106000BE016F5F7F4FCE0182960E94D000C816EE
:10107000D906D1F4E114F10409F479C0EA94EF2817
:1010800099F4CD2889F4880C991CAA1CBB1C79C042
:101090004CEB51E0BE016F5F7F4FCE0182960E9404
:1010A000D000E816F90669F2C0905901D0905A01B3
:1010B000F60182819381C697869778F58481958120
:1010C0004B97459750F5D60116967601F6ECEF0E44
:1010D000F11C20E030E040E050E060E070E080E0B3
:1010E00090E00D911C9111970950110908301105DC
:1010F000A0F412960D911C911397015111090D3016
:10110000110508F450C012960D911C9113970450CC
:1011100011090530110508F46BC08091C7028232B5
:1011200009F06AC0F601828193810A97099708F055
:1011300063C0A091C702B0E0A150B048AA0FBB1F86
:10114000AC0DBD1D8D919C910A97099708F054C074
:10115000109258011092570140925301509254013D
:10116000609255017092560188E090E0A4CECA9436
:10117000CD2809F099CF880C991CAA1CBB1C689437
:1011800080F80F5F1F4F46CF10935801009357010F
:101190008092530190925401A0925501B092560151
:1011A00084E090E088CE01E00E94520C2160149609
:1011B000EA16FB0609F095CF2093530130935401B2
:1011C000409355015093560100E20E946D0C20930C
:1011D00051013093520187E090E090935001809349
:1011E0004F0180E390E0909358018093570171CCB8
:1011F00001E00E94520CDBCFF60182819381895776
:1012000091098335910548F58091C702813228F113
:1012100084819581CA97899700F596012A5F3F4F8F
:1012200080E090E0DC0143E050E0F90160817181F1
:101230006A5071096930710580F462817381665169
:1012400071096131710508F48AC062817381665049
:1012500071096730710508F4AAC080915B01909113
:101260005C019FA38EA306970CF48DCCF6013296F9
:10127000FDA3ECA303E010E085ECC82E8DE9D82E89
:101280008CE1E82E81E8F82EECA1FDA16481758146
:10129000A080B18090E080E00E94F60A68A779A75C
:1012A0008AA79BA7B50190E080E00E94F60A4B0157
:1012B0005C012DEC3CEC4CE45FE30E94A80B9B012D
:1012C000AC0168A579A58AA59BA50E94490AF0E012
:1012D000E0E087FD16C02DEC3CEC4CE45FE368A534
:1012E00079A58AA59BA50E94A80B9B01AC01C5010D
:1012F000B4010E94490AE2E0F0E087FD02C0E1E0AB
:10130000F0E0A701960163E971E080E091E00E94BE
:10131000150C6F01FF0FEE08FF08C626D726E8263A
:10132000F9260F5F1F4F8CA19DA102969DA38CA350
:10133000EEA1FFA1E017F10709F0A6CFC09253017B
:10134000D0925401E0925501F092560180E290E073
:1013500090935801809357018FEF9FEFACCD880F8A
:10136000991FAA1FBB1F81604E5F5F4F2C5F3F4FCD
:101370004332510509F059CF96012A5B3F4FF901DD
:10138000208131812A5031092930310508F065CF9B
:1013900020E130E0309358012093570180935301AE
:1013A00090935401A0935501B0935601DDCE880F60
:1013B000991FAA1FBB1FD8CF5058BB27AA270E942E
:1013C000F4090C946E0B0E94600B38F00E94670BBE
:1013D00020F039F49F3F19F426F40C945D0B0EF4C1
:1013E000E095E7FB0C94570BE92F0E947F0B58F315
:1013F000BA17620773078407950720F079F4A6F5FA
:101400000C94A10B0EF4E0950B2EBA2FA02D0B011E
:10141000B90190010C01CA01A0011124FF27591B39
:1014200099F0593F50F4503E68F11A16F040A22F3F
:10143000232F342F4427585FF3CF469537952795B0
:10144000A795F0405395C9F77EF41F16BA0B620BAF
:10145000730B840BBAF09150A1F0FF0FBB1F661FF6
:10146000771F881FC2F70EC0BA0F621F731F841F39
:1014700048F4879577956795B795F7959E3F08F05F
:10148000B0CF9395880F08F09927EE0F9795879521
:1014900008950E94330B08F481E008950E94620AC7
:1014A0000C946E0B0E94670B58F00E94600B40F08A
:1014B00029F45F3F29F00C94570B51110C94A20BA7
:1014C0000C945D0B0E947F0B68F39923B1F35523B5
:1014D00091F3951B550BBB27AA2762177307840747
:1014E00038F09F5F5F4F220F331F441FAA1FA9F3DD
:1014F00035D00E2E3AF0E0E832D091505040E695CB
:10150000001CCAF72BD0FE2F29D0660F771F881F2B
:10151000BB1F261737074807AB07B0E809F0BB0B1E
:10152000802DBF01FF2793585F4F3AF09E3F510532
:1015300078F00C94570B0C94A20B5F3FE4F3983EA9
:10154000D4F3869577956795B795F7959F5FC9F71B
:10155000880F911D9695879597F90895E1E0660F9C
:10156000771F881FBB1F621773078407BA0720F015
:10157000621B730B840BBA0BEE1F88F7E09508957E
:101580000E94C70A6894B1110C94A20B08950E949E
:10159000870B88F09F5798F0B92F9927B751B0F073
:1015A000E1F0660F771F881F991F1AF0BA95C9F7E7
:1015B00014C0B13091F00E94A10BB1E008950C94D9
:1015C000A10B672F782F8827B85F39F0B93FCCF38C
:1015D000869577956795B395D9F73EF49095809564
:1015E000709561957F4F8F4F9F4F0895E89409C084
:1015F00097FB3EF490958095709561957F4F8F4F46
:101600009F4F9923A9F0F92F96E9BB279395F6955B
:10161000879577956795B795F111F8CFFAF4BB0FD9
:1016200011F460FF1BC06F5F7F4F8F4F9F4F16C03D
:10163000882311F096E911C0772321F09EE8872FC7
:10164000762F05C0662371F096E8862F70E060E083
:101650002AF09A95660F771F881FDAF7880F9695FC
:10166000879597F90895990F0008550FAA0BE0E8A0
:10167000FEEF16161706E807F907C0F01216130654
:10168000E407F50798F0621B730B840B950B39F494
:101690000A2661F0232B242B252B21F408950A26FA
:1016A00009F4A140A6958FEF811D811D089597F93A
:1016B0009F6780E870E060E008959FEF80EC0895F8
:1016C00000240A9416161706180609060895002421
:1016D0000A9412161306140605060895092E03949B
:1016E000000C11F4882352F0BB0F40F4BF2B11F40F
:1016F00060FF04C06F5F7F4F8F4F9F4F089557FD6E
:101700009058440F551F59F05F3F71F04795880F6F
:1017100097FB991F61F09F3F79F087950895121606
:1017200013061406551FF2CF4695F1DF08C01616B2
:1017300017061806991FF1CF869571056105089463
:101740000895E894BB2766277727CB0197F908957A
:101750000E94BB0B0C946E0B0E94600B38F00E9431
:10176000670B20F0952311F00C94570B0C945D0B34
:1017700011240C94A20B0E947F0B70F3959FC1F370
:10178000950F50E0551F629FF001729FBB27F00D2F
:10179000B11D639FAA27F00DB11DAA1F649F662784
:1017A000B00DA11D661F829F2227B00DA11D621FD3
:1017B000739FB00DA11D621F839FA00D611D221F8D
:1017C000749F3327A00D611D231F849F600D211D71
:1017D000822F762F6A2F11249F5750409AF0F1F0F4
:1017E00088234AF0EE0FFF1FBB1F661F771F881F5D
:1017F00091505040A9F79E3F510580F00C94570B33
:101800000C94A20B5F3FE4F3983ED4F38695779552
:101810006795B795F795E7959F5FC1F7FE2B880F02
:10182000911D9695879597F90895DB018F939F9366
:101830000E94470CBF91AF91A29F800D911DA39F65
:10184000900DB29F900D11240895A1E21A2EAA1BAB
:10185000BB1BFD010DC0AA1FBB1FEE1FFF1FA21760
:10186000B307E407F50720F0A21BB30BE40BF50B5D
:10187000661F771F881F991F1A9469F760957095E6
:10188000809590959B01AC01BD01CF0108950E9408
:101890008E0CA59F900DB49F900DA49F800D911D5F
:1018A00011240895002E083090F0982F872F762F5E
:1018B000652F542F432F322F22270850F4CF220FA9
:1018C000331F441F551F661F771F881F991F0A95D6
:1018D000B2F7002D089597FD1094002E083098F06F
:1018E0000850232F342F452F562F672F782F892FFD
:1018F000912DF4CF15949795879577956795579582
:101900004795379527950A95AAF71124002D089534
:10191000EE0FFF1F0590F491E02D0994A29FB001F6
:10192000B39FC001A39F700D811D1124911DB29F13
:0E193000700D811D1124911D0895F894FFCFB4
:10193E0000000000E401440171013102A2018001A6
:10194E009401E0B8A3E0B8ABE0B8B1E0B8AAE0B853
:10195E009BE0B8B8E0B988E0B8A1E0B881E0B894EF
:10196E003A20000D0A004C4544204F4E004C454491
:06197E00204F4646000068
:00000001FF
