:100000000C9462000C948A000C948A000C948A0070
:100010000C948A000C948A000C948A000C94240797
:100020000C948A000C948A000C948A000C948A0028
:100030000C948A000C948A000C948A000C948A0018
:100040000C94BB050C948A000C9489050C946305F0
:100050000C948A000C948A000C948A000C948A00F8
:100060000C9405060C948A00000000002400270070
:100070002A0000000000250028002B0000000000DE
:1000800023002600290004040404040404040202DA
:100090000202020203030303030301020408102007
:1000A0004080010204081020010204081020000012
:1000B0000008000201000003040700000000000027
:1000C0000000C30711241FBECFEFD8E0DEBFCDBFB5
:1000D00011E0A0E0B1E0E8E5F2E202C005900D9287
:1000E000AE35B107D9F723E0AEE5B1E001C01D920E
:1000F000A13BB207E1F710E0C2E6D0E004C02197CF
:10010000FE010E941511C136D107C9F70E941108DE
:100110000C942A110C940000CF92DF92EF92FF9280
:10012000CF93DF93EC01072E000C880B990B0E94F4
:10013000850F6B017C0120E030E040E45FE30E942A
:10014000351020E030E048E452E40E94DB0E0E94CB
:100150004D0FC617D707D4F020E030E040EA5FE348
:10016000C701B6010E94351020E030E048E452E4B7
:100170000E94DB0E20E030E040E85FE30E946A0E60
:100180000E944D0F21E06C177D070CF420E0822FB8
:1001900090E0DF91CF91FF90EF90DF90CF900895A6
:1001A0008F929F92AF92BF92CF92DF92EF92FF9287
:1001B0000F931F93CF93DF93FC0120813181E09156
:1001C0002B02F0912C0201E010E02E173F070CF0FB
:1001D00043C0D901AA0FBB1FE0912902F0912A0266
:1001E000EA0FFB1FA080B180890100951095017076
:1001F000112720FD23C02CE93FEFEA016B017C01B0
:100200004901840E951EB401C5010E948C00892B02
:10021000C1F48C0E9D1EB401C5010E948C00892B77
:1002200049F5BE01680D791DC5010E948C0023E0CF
:1002300030E0892B41F40FEF1FEF0EC024E630E0D1
:10024000DCCF21E030E0F6018081918101968217B8
:1002500093079CF491838083C801DF91CF911F9114
:100260000F91FF90EF90DF90CF90BF90AF909F9055
:100270008F90089522E030E0E6CF11821082F701DE
:10028000808191810196E6CF08950895AF92BF9243
:10029000CF92DF92EF92FF920F931F93CF93DF9352
:1002A0006C017B018B01040F151FEB015E01AE1881
:1002B000BF08C017D10759F06991D601ED91FC91A3
:1002C0000190F081E02DC6010995892B79F7C501D0
:1002D000DF91CF911F910F91FF90EF90DF90CF9022
:1002E000BF90AF900895FC01538D448D252F30E0D1
:1002F000842F90E0821B930B541710F0CF96089533
:1003000001970895FC01918D828D981761F0A28D5F
:10031000AE0FBF2FB11D5D968C91928D9F5F9F7325
:10032000928F90E008958FEF9FEF0895FC01918DDB
:10033000828D981731F0828DE80FF11D858D90E048
:1003400008958FEF9FEF0895FC01918D228D892FE5
:1003500090E0805C9F4F821B91098F7399270895CD
:100360008DE292E00E94A40121E0892B09F420E0B3
:10037000822F089580E090E0892B29F00E94B0013F
:1003800081110C9400000895FC01A48DA80FB92FD1
:10039000B11DA35ABF4F2C91848D90E001968F73AD
:1003A0009927848FA689B7892C93A089B1898C91CC
:1003B000837080648C93938D848D981306C002881B
:1003C000F389E02D80818F7D80830895EF92FF92E5
:1003D0000F931F93CF93DF93EC0181E0888F9B8D68
:1003E0008C8D98131AC0E889F989808185FF15C022
:1003F0009FB7F894EE89FF896083E889F989808145
:100400008370806480839FBF81E090E0DF91CF9113
:100410001F910F91FF90EF900895F62E0B8D10E035
:100420000F5F1F4F0F731127E02E8C8D8E110CC0A4
:100430000FB607FCFACFE889F989808185FFF5CFEF
:10044000CE010E94C401F1CFEB8DEC0FFD2FF11D09
:10045000E35AFF4FF0829FB7F8940B8FEA89FB892C
:1004600080818062CFCFCF93DF93EC01888D88238A
:10047000B9F0AA89BB89E889F9898C9185FD03C007
:10048000808186FD0DC00FB607FCF7CF8C9185FFEC
:10049000F2CF808185FFEDCFCE010E94C401E9CF6C
:1004A000DF91CF910895833081F028F4813099F065
:1004B0008230A9F008958730A9F08830C9F08430DF
:1004C000B1F4809180008F7D03C0809180008F7790
:1004D00080938000089584B58F7784BD089584B596
:1004E0008F7DFBCF8091B0008F778093B00008950F
:1004F0008091B0008F7DF9CFCF93DF93282F30E02C
:10050000F901E255FF4F8491F901E656FF4FD4916E
:10051000F901EA57FF4FC491CC23A1F081110E9449
:100520005302EC2FF0E0EE0FFF1FE458FF4FA591B0
:10053000B491EC91ED2381E090E009F480E0DF914B
:10054000CF91089580E090E0FACF1F93CF93DF938F
:10055000282F30E0F901E255FF4F8491F901E6566A
:10056000FF4FD491F901EA57FF4FC491CC23A9F072
:10057000162F81110E945302EC2FF0E0EE0FFF1FA7
:10058000EE58FF4FA591B4918FB7F894EC911111EB
:1005900008C0D095DE23DC938FBFDF91CF911F91F0
:1005A0000895DE2BF8CFCF93DF9390E0FC01E65661
:1005B000FF4F24918A579F4FFC0184918823D1F0EB
:1005C00090E0880F991FFC01E859FF4FA591B49165
:1005D000FC01EE58FF4FC591D49161110EC09FB739
:1005E000F8948C91E22FE0958E238C932881E2235E
:1005F000E8839FBFDF91CF9108958FB7F894EC9176
:10060000E22BEC938FBFF6CF3FB7F89480910C02AA
:1006100090910D02A0910E02B0910F0226B5A89BF9
:1006200005C02F3F19F00196A11DB11D3FBFBA2F84
:10063000A92F982F8827BC01CD01620F711D811D44
:10064000911D42E0660F771F881F991F4A95D1F7C9
:1006500008958F929F92AF92BF92CF92DF92EF92C6
:10066000FF924B015C010E9404036B017C010E941C
:1006700004036C197D098E099F09683E734081054A
:100680009105A8F321E0821A9108A108B10888EE2B
:10069000C80E83E0D81EE11CF11C81149104A10452
:1006A000B10429F7FF90EF90DF90CF90BF90AF900B
:1006B0009F908F90089585ED8093BC008091BC0041
:1006C00084FDFCCF1092160208952091C001260FE0
:1006D0003327331F21323105ECF420911602FC013F
:1006E00090E080E0243069F082E00895A091C0019C
:1006F0002191AC0140565E4FA40FB52FB11D2C9334
:100700000196861798F38091C001680F6093C0012D
:1007100080E0089581E008950895E0911A028091A3
:100720001902E81730F4F0E0E058FE4F808190E0C5
:1007300008958FEF9FEF089590911A02809119020A
:100740002FEF3FEF981748F4E92FF0E0E058FE4F05
:10075000208130E09F5F90931A02C9010895809133
:10076000190290911A02891B990B0895CF92DF927A
:10077000EF92FF920F931F93CF93DF937C01CB01F6
:100780008A0120917F01222389F0EB016B01C40EC5
:10079000D51ECC15DD0569F06991D701ED91FC916D
:1007A0000190F081E02DC7010995F3CF642F0E94DD
:1007B0006503C801DF91CF911F910F91FF90EF90DA
:1007C000DF90CF900895CF93DF931F92CDB7DEB720
:1007D000698320917F012223F9F0209117022032B2
:1007E00058F021E030E0FC013383228390E080E088
:1007F0000F90DF91CF91089580911802E82FF0E0DB
:10080000E15AFE4F998190838F5F80931802809305
:10081000170281E090E0ECCF61E0CE0101960E94EA
:100820006503F7CFCF93FC01C48121E020937F01C2
:10083000C0935E0110921802109217028485682BF3
:100840008AEC92E00E94E30390911702913208F043
:100850003FC0809116028111FCCF82E08093160286
:1008600081E0809315028FEF8093E30110920502DF
:1008700090930402AFE5B1E0E4EEF1E080E098137C
:100880002FC01092060280910602CC0FC82BC09395
:10089000060280911402813039F510921402809181
:1008A00006028093BB008091BC0083FDF8CF85ECED
:1008B0008093BC00809116028230E1F38091E301C5
:1008C0008F3F31F08091E301803211F08091E3019C
:1008D000109218021092170210927F01CF91089582
:1008E0002D9121938F5FCBCF85EEE2CF089590E0DD
:1008F00080E008950F931F93CF938C01C62F0E9421
:1009000012046C2F6460C8010E9412046C2F6B7F6C
:10091000C8010E94120483EC90E00197F1F7CF9197
:100920001F910F9108950F931F93CF93DF938C0125
:10093000D62FC42F607F642B0E947A0480E1D89F59
:10094000B00111246C2BC801DF91CF911F910F9141
:100950000C947A04682F606840E084EA93E00C9479
:10096000930440E061E084EA93E00E9493048BE307
:100970009FE10197F1F78091AD03882319F080E0A2
:100980000C94AA04089541E00E94930481E090E051
:100990000895FB0101900020E9F73197AF01461B54
:1009A000570BDC01ED91FC910280F381E02D09945D
:1009B0008F929F92AF92BF92CF92DF92EF92FF926F
:1009C0000F931F93CF93DF93CDB7DEB7A1970FB6E9
:1009D000F894DEBF0FBECDBF6C01990FEE08FF0883
:1009E000F7FE4BC06DE28DE292E00E94E6018C01C1
:1009F00022273327A9012C193D094E095F0919A2A5
:100A0000CE0181967C019AE0892E912CA12CB12CEB
:100A1000CA01B901A50194010E94B210605DF701FD
:100A200062937F01211531054105510589F790E059
:100A300080E0309729F0BF018DE292E00E94C90466
:100A4000080F191F60E371E08DE292E00E94C90473
:100A5000800F911FA1960FB6F894DEBF0FBECDBFD9
:100A6000DF91CF911F910F91FF90EF90DF90CF908A
:100A7000BF90AF909F908F900895A701960119A203
:100A80008E010F5D1F4F8AE0C82ED12CE12CF12C76
:100A9000CA01B901A70196010E94B210605DF80178
:100AA00062938F01211531054105510589F7309772
:100AB00039F0BF018DE292E00E94C9048C01C2CFDF
:100AC00010E000E0BFCF1F920F920FB60F921124DB
:100AD0002F933F934F935F936F937F938F939F9346
:100AE000AF93BF93EF93FF938DE292E00E94C40116
:100AF000FF91EF91BF91AF919F918F917F916F91F6
:100B00005F914F913F912F910F900FBE0F901F90CB
:100B100018951F920F920FB60F9211242F938F9357
:100B20009F93EF93FF93E0913D02F0913E0280810D
:100B3000E0914302F091440282FD1BC090818091BC
:100B400046028F5F8F7320914702821741F0E09138
:100B50004602F0E0E35DFD4F958F80934602FF91E2
:100B6000EF919F918F912F910F900FBE0F901F903B
:100B700018958081F4CF1F920F920FB60F92112417
:100B80002F933F938F939F93AF93BF9380910802CE
:100B900090910902A0910A02B0910B0230910702D4
:100BA00023E0230F2D3758F50196A11DB11D209389
:100BB00007028093080290930902A0930A02B0935F
:100BC0000B0280910C0290910D02A0910E02B09147
:100BD0000F020196A11DB11D80930C0290930D028E
:100BE000A0930E02B0930F02BF91AF919F918F918E
:100BF0003F912F910F900FBE0F901F90189526E8F0
:100C0000230F0296A11DB11DD2CF1F920F920FB6D6
:100C10000F9211242F933F934F935F936F937F9382
:100C20008F939F93AF93BF93EF93FF938091B900FE
:100C3000887F803609F44AC0F0F5883209F4A7C0ED
:100C400018F5803109F49BC0B8F4882309F4F9C081
:100C5000883009F494C0FF91EF91BF91AF919F91BB
:100C60008F917F916F915F914F913F912F910F9055
:100C70000FBE0F901F901895883109F488C08032FC
:100C800051F78093E30114C0803409F49DC040F40F
:100C90008033B9F38833F9F68093E30185ECB0C073
:100CA000803509F485C0883509F496C0883499F6F2
:100CB0000E945B03D0CF883909F48CC038F588379F
:100CC00029F050F4883611F0803729F683E08093BC
:100CD00016021092E20157C0883809F47BC08039AF
:100CE00019F0803809F0B7CF8091E201803208F026
:100CF00071C0E091E20181E08E0F8093E20180916A
:100D0000BB00F0E0EE53FE4F80833DC0803B39F0E6
:100D1000E0F4803A09F479C0883A09F09CCF84E085
:100D2000809316021092C1011092C001E09112024C
:100D3000F091130209958091C00181110FC081E0EB
:100D40008093C0011092A00109C0803C09F4A6CF95
:100D5000883C09F4A3CF883B09F07DCFE091C10125
:100D600081E08E0F8093C101F0E0E056FE4F80815C
:100D70008093BB009091C1018091C00129C08091F6
:100D800006028093BB0085EC8093BC0064CF9091F9
:100D9000050280910402981758F5E091050281E060
:100DA0008E0F80930502F0E0EC51FE4F8081E9CF79
:100DB000E091050281E08E0F809305028091BB00D7
:100DC000F0E0EC51FE4F8083909105028091040287
:100DD0009817C8F285E8D8CFE091050281E08E0F20
:100DE000809305028091BB00F0E0EC51FE4F8083C0
:100DF0008091150281115CCF81E08093140284EA16
:100E00008093BC001092160226CF85EC8093BC0024
:100E1000109216028091E201803230F4E091E201FA
:100E2000F0E0EE53FE4F10826091E20170E0E0913D
:100E30001002F091110282EC91E009951092E2010A
:100E40000ACF1092E30134CF1F920F920FB60F9288
:100E500011242F933F934F935F936F937F938F93BF
:100E60009F93AF93BF93EF93FF938091D6020E941D
:100E70007C022091D9023091DA022F5F3F4F3093EC
:100E8000DA022093D9029091A303943618F095E0EA
:100E90009093D7029091D702933009F44AC0D0F4CE
:100EA000923001F19091D802992319F0811169C013
:100EB0002D9AFF91EF91BF91AF919F918F917F916B
:100EC0006F915F914F913F912F910F900FBE0F90B7
:100ED0001F901895943009F448C0953019F7811186
:100EE000E1CF09C08111DECF2091D9023091DA0221
:100EF0002436310528F41092DA021092D902D2CFAA
:100F00001092A303E091A30391E09E0F9093A3039B
:100F1000F0E02091D9023091DA02EE0FFF1FEA5281
:100F2000FD4F368325831092DA021092D90293E0A6
:100F300019C0813009F0B6CFE091A30391E09E0F74
:100F40009093A303F0E02091D9023091DA02EE0FE2
:100F5000FF1FEA52FD4F368325831092DA0210926A
:100F6000D90294E09093D7029DCF882359F2209123
:100F7000D9023091DA022536310508F493CF95E095
:100F8000F1CF2D9896CFEDE2F2E01382128288EE37
:100F900093E0A0E0B0E084839583A683B78324E048
:100FA00031E03183208325EC30E03587248724EC41
:100FB00030E03787268720EC30E0318B208B21EC26
:100FC00030E0338B228B22EC30E0358B248B26EC07
:100FD00030E0378B268B118E128E138E148EEAEC36
:100FE000F2E01382128284839583A683B78386E11D
:100FF00091E091838083E4EAF3E01382128288E235
:1010000091E091838083118687E2848380E18287E7
:1010100082E083871486E6EDF2E08BE08083128223
:101020000895CF93DF93CDB7DEB72C970FB6F89422
:10103000DEBF0FBECDBF789484B5826084BD84B519
:10104000816084BD85B5826085BD85B5816085BDC3
:1010500080916E00816080936E001092810080917B
:101060008100826080938100809181008160809303
:101070008100809180008160809380008091B10028
:1010800084608093B1008091B00081608093B00053
:1010900080917A00846080937A0080917A008260E7
:1010A00080937A0080917A00816080937A008091A9
:1010B0007A00806880937A001092C10060E082E03C
:1010C0000E94D30261E083E00E94D302E0913D02DE
:1010D000F0913E0282E08083E0913902F0913A0281
:1010E0001082E0913B02F0913C029FEC90831092C1
:1010F0004502E0914102F091420296E09083E09136
:101100003F02F0914002908190619083E0913F0214
:10111000F0914002908198609083E0913F02F091BD
:101120004002908190689083E0913F02F0914002EC
:1011300090819F7D9083F8948093B0008093B1005C
:1011400094E69093B3001092B2008093700078946C
:101150008093D7021092A3038091D60260E00E9490
:10116000D30260E083E00E94A50210921A0210925E
:10117000190210921802109217021092160281E0C2
:10118000809315021092140261E082E10E94A50290
:1011900061E083E10E94A5028091B9008E7F809377
:1011A000B9008091B9008D7F8093B90088E4809365
:1011B000B80085E48093BC0084E491E0909313022E
:1011C0008093120285E491E09093110280931002C3
:1011D0001092A9038091AF03823018F098E09093A9
:1011E000A9038093AC0362E370E080E090E00E948A
:1011F00029036091B00384EA93E00E94120468EE30
:1012000073E080E090E00E94290360E384EA93E0C9
:101210000E947A040BE416E4C8010197F1F760E339
:1012200084EA93E00E947A04C8010197F1F760E331
:1012300084EA93E00E947A0483E592E00197F1F753
:1012400060E284EA93E00E947A046091A9036062FC
:1012500040E084EA93E00E94930484E08093AA0330
:1012600040E06CE084EA93E00E9493040E94B104A1
:1012700082E08093AB0340E066E084EA93E00E9462
:10128000930440E062E084EA93E00E9493048BE3DD
:101290009FE10197F1F788E08093B00360E084EA72
:1012A00093E00E94120480E00E94AA0463E371E0CC
:1012B00084EA93E00E94C90460ED77E080E090E06A
:1012C0000E9429030E94B10422242394312C442437
:1012D0004A94542C320182E00E947C0290931E02B8
:1012E00080931D0261E471E08DE292E00E94C904E6
:1012F00080911D0290911E020E94D80480911B02D1
:1013000090911C020E94D80480E00E94AA0468E424
:1013100071E084EA93E00E94C90480911D029091DB
:101320001E028130910509F0AEC080911B029091A0
:101330001C02883C91052CF40A9690931C02809321
:101340001B022BED32E030932A0220932902809178
:10135000A30390E090932C0280932B028091D702FC
:10136000853009F060C08091DD029091DE028858DE
:1013700091098D35910508F0BFC08091A303843099
:1013800009F08EC08091DF029091E002809747972C
:1013900008F086C08091E1029091E20209970997D6
:1013A00008F07EC010922802109227024092230279
:1013B00050922402609225027092260230922002FE
:1013C00020921F028091230290912402A091250275
:1013D000B09126028D35924AAF4FB10551F488EC99
:1013E00090E090931C0280931B0261E083E00E94D6
:1013F000A5028091230290912402A0912502B09130
:1014000026028D399246AF4FB10541F410921C026D
:1014100010921B0260E083E00E94A50282E08093AC
:10142000D7021092A30380911B0290911C0260E0EE
:10143000009711F024F061E083E00E94A50283E0B0
:101440000E947C02019709F038C48BE00E94AA0434
:1014500063E571E084EA93E00E94C90468EC70E0FF
:1014600080E090E00E9429030E94B10480E090E0B7
:10147000892B09F430CF0E94B001882309F42BCFC7
:101480000E94000028CF892B09F05BCF80911B02BE
:1014900090911C02181619060CF053CF0A974DCFE5
:1014A0008091A303843440F18091DF029091E002A7
:1014B000825491098E9700F590E080E040E050E082
:1014C000BA01FC01EF51FD4F2081318129503109D2
:1014D0002930310588F4FC01ED51FD4F2081318127
:1014E000265131092131310530F1208131812650D9
:1014F000310927303105C0F18091A3038A3108F406
:1015000068C08091DB029091DC02843F914088F5B5
:101510001092280210922702409223025092240235
:10152000609225027092260289E090E0909320025A
:1015300080931F0247CF440F551F661F771F4160DE
:1015400004968038910509F0BCCF80E290E090933A
:101550002802809327024093230250932402609331
:101560002502709326022ACF440F551F661F771F4E
:10157000E7CF8091DD029091DE0285974B9748F589
:10158000E6EDF2E082E090E040E050E0BA01A091A8
:10159000A3039C012F5F3F4FA217130609F00CF421
:1015A000F2C021853285275031092730310508F0F6
:1015B000EAC023853485235131092F30310508F4E1
:1015C000D5C0238534852A5031092930310508F4E6
:1015D000D5C08091A3038A3108F43FC08091DB021B
:1015E0009091DC028032934008F492CF8091DD022A
:1015F0009091DE02C697869780F58091DF029091E8
:10160000E002C697869748F5E6EDF2E083E090E0C9
:1016100040E050E0BA01A091A3039C012F5F3F4F2F
:10162000A217130609F00CF4D8C0238534852C507A
:1016300031092B30310508F0D0C02585368525527B
:1016400031092B31310508F4BBC0258536852C5076
:1016500031092A30310508F4BBC08091A3038232DE
:1016600038F18091DD029091DE020697079700F530
:10167000E6EDF2E082E090E040E050E0BA01DC010B
:1016800011962091A3032A171B0609F00CF4D1C070
:10169000218532852E5131092731310508F4B4C036
:1016A000218532852C5031092B30310508F4BBC01F
:1016B0008091A3038D3008F4EDC03C822B821A8206
:1016C000198249E753E0BE016F5F7F4FCE01039659
:1016D0000E94D000892B09F0DDC049E753E0BE012C
:1016E0006F5F7F4FCE0103960E94D000019709F0F3
:1016F000D1C049E753E0BE016F5F7F4FCE01039633
:101700000E94D0008C01892B09F0C4C0812C912C3F
:1017100054012091A3038B819C812817190609F09D
:101720000CF4A9C049E753E0BE016F5F7F4FCE01C3
:1017300003960E94D0007C0149E753E0BE016F5F31
:101740007F4FCE0103960E94D000E1E0EE16F10437
:1017500009F088C0892B09F09DC0880C991CAA1C2F
:10176000BB1C689480F80F5F1F4FD3CF440F551FE9
:10177000661F771F41600296349609CF440F551FAC
:10178000661F771FF8CF019795958795909328024C
:10179000809327020C972CF41092280210922702B3
:1017A00018CF409323025093240260932502709334
:1017B000260222E030E03093200220931F0202CE66
:1017C000440F551F661F771F41600296349623CF42
:1017D000440F551F661F771FF8CF01979595879582
:1017E00090932802809327020C972CF410922802E1
:1017F0001092270232CF4093230250932402609329
:1018000025027093260290CE440F551F661F771F46
:1018100041602385348534962350310925303105C4
:1018200038F402962CCF440F551F661F771FF1CF57
:10183000CD01019795958795909328028093270273
:1018400040972CF4109228021092270231CF409337
:1018500023025093240260932502709326028AE0AB
:1018600090E064CEEF28B1F40197A1F4880C991CA4
:10187000AA1CBB1C78CF10932802009327028092E9
:10188000230290922402A0922502B092260283E0C5
:1018900090E04CCE80912B0290912C0218161906E4
:1018A0000CF082C0E0912902F0912A023C822B8246
:1018B0008281938189974E9708F076C022E030E0CC
:1018C0003C832B83848195810B970A9708F06CC029
:1018D00083E090E09C838B831A8219824CEB51E069
:1018E000BE016F5F7F4FCE0103960E94D0008C0136
:1018F000892B09F059C04CEB51E0BE016F5F7F4F5F
:10190000CE0103960E94D000019709F04DC0812CB2
:10191000912C540120912B0230912C028B819C81BF
:10192000821793070CF0B0C04CEB51E0BE016F5F23
:101930007F4FCE0103960E94D0007C010330110539
:1019400039F14CEB51E0BE016F5F7F4FCE01039642
:101950000E94D0006C010330110561F44CEB51E0A2
:10196000BE016F5F7F4FCE0103960E94D000C81664
:10197000D906D1F4E114F10409F479C0EA94EF280E
:1019800099F4CD2889F4880C991CAA1CBB1C79C039
:101990004CEB51E0BE016F5F7F4FCE0103960E947A
:1019A000D000E816F90669F2C0902902D0902A0208
:1019B000F60182819381C697869778F58481958117
:1019C0004B97459750F5D60116967601F6ECEF0E3B
:1019D000F11C20E030E040E050E060E070E080E0AA
:1019E00090E00D911C9111970950110908301105D3
:1019F000A0F412960D911C911397015111090D300D
:101A0000110508F450C012960D911C9113970450C3
:101A100011090530110508F46BC08091A3038232CF
:101A200009F06AC0F601828193810A97099708F04C
:101A300063C0A091A303B0E0A150B048AA0FBB1FA0
:101A4000AC0DBD1D8D919C910A97099708F054C06B
:101A500010922802109227024092230250922402F0
:101A6000609225027092260288E090E05FCDCA94D1
:101A7000CD2809F099CF880C991CAA1CBB1C68942E
:101A800080F80F5F1F4F46CF109328020093270264
:101A90008092230290922402A0922502B092260204
:101AA00084E090E043CD01E00E94DF1021601496B5
:101AB000AE15BF0509F095CF209323023093240281
:101AC000409325025093260200E20E94FA102093D0
:101AD00021023093220287E090E0909320028093CD
:101AE0001F0280E390E090932802809327026ACC43
:101AF00001E00E94DF10DBCFF601828193818957DC
:101B000091098335910548F58091A303813228F12D
:101B100084819581CA97899700F596012A5F3F4F86
:101B200080E090E0DC0143E050E0F90160817181E8
:101B30006A5071096930710580F462817381665160
:101B400071096131710508F48BC06281738166503F
:101B500071096730710508F4ABC080912B02909138
:101B60002C0298878F8306970CF458CC86010E5F61
:101B70001F4F85ECC82E8DE9D82E8CE1E82E81E828
:101B8000F82EE3E0F0E0FE83ED83F80164817581D7
:101B9000A080B18090E080E00E94830F69877A87FF
:101BA0008B879C87B50190E080E00E94830F4B01FA
:101BB0005C012DEC3CEC4CE45FE30E9435109B0192
:101BC000AC0169857A858B859C850E94D60EF0E0F4
:101BD000E0E087FD16C02DEC3CEC4CE45FE369854A
:101BE0007A858B859C850E9435109B01AC01C501CF
:101BF000B4010E94D60EE2E0F0E087FD02C0E1E011
:101C0000F0E0A701960163E971E080E091E00E94B5
:101C1000A2106F01FF0FEE08FF08C626D726E826A0
:101C2000F9262D813E812F5F3F4F3E832D830E5F2E
:101C30001F4F8F8198858217930709F0A6CFC09216
:101C40002302D0922402E0922502F0922602E0E2E2
:101C5000F0E0F0932802E09327022FEF3FEFABCDA7
:101C6000880F991FAA1FBB1F81604E5F5F4F2C5FBB
:101C70003F4F4332510509F058CF96012A5B3F4F41
:101C8000F901208131812A5031092930310508F0CC
:101C900064CF20E130E03093280220932702809324
:101CA000230290932402A0932502B0932602DCCE57
:101CB000880F991FAA1FBB1FD8CF83E00E947C0208
:101CC000892B09F0CBCB8BE00E94AA0468E571E078
:101CD000C1CB5058BB27AA270E94810E0C94FB0F42
:101CE0000E94ED0F38F00E94F40F20F039F49F3F6E
:101CF00019F426F40C94EA0F0EF4E095E7FB0C942B
:101D0000E40FE92F0E940C1058F3BA17620773070B
:101D10008407950720F079F4A6F50C942E100EF4A4
:101D2000E0950B2EBA2FA02D0B01B90190010C01EB
:101D3000CA01A0011124FF27591B99F0593F50F403
:101D4000503E68F11A16F040A22F232F342F44275B
:101D5000585FF3CF469537952795A795F040539553
:101D6000C9F77EF41F16BA0B620B730B840BBAF023
:101D70009150A1F0FF0FBB1F661F771F881FC2F78E
:101D80000EC0BA0F621F731F841F48F487957795A2
:101D90006795B795F7959E3F08F0B0CF9395880F5C
:101DA00008F09927EE0F9795879508950E94C00F28
:101DB00008F481E008950E94EF0E0C94FB0F0E943E
:101DC000F40F58F00E94ED0F40F029F45F3F29F026
:101DD0000C94E40F51110C942F100C94EA0F0E94F4
:101DE0000C1068F39923B1F3552391F3951B550B10
:101DF000BB27AA2762177307840738F09F5F5F4FDE
:101E0000220F331F441FAA1FA9F335D00E2E3AF01C
:101E1000E0E832D091505040E695001CCAF72BD034
:101E2000FE2F29D0660F771F881FBB1F2617370785
:101E30004807AB07B0E809F0BB0B802DBF01FF27B7
:101E400093585F4F3AF09E3F510578F00C94E40FA1
:101E50000C942F105F3FE4F3983ED4F3869577956A
:101E60006795B795F7959F5FC9F7880F911D969570
:101E7000879597F90895E1E0660F771F881FBB1FCC
:101E8000621773078407BA0720F0621B730B840B79
:101E9000BA0BEE1F88F7E09508950E94540F6894DE
:101EA000B1110C942F1008950E94141088F09F57C0
:101EB00098F0B92F9927B751B0F0E1F0660F771F6E
:101EC000881F991F1AF0BA95C9F714C0B13091F064
:101ED0000E942E10B1E008950C942E10672F782FD9
:101EE0008827B85F39F0B93FCCF386957795679529
:101EF000B395D9F73EF490958095709561957F4F95
:101F00008F4F9F4F0895E89409C097FB3EF490953A
:101F10008095709561957F4F8F4F9F4F9923A9F0C2
:101F2000F92F96E9BB279395F69587957795679551
:101F3000B795F111F8CFFAF4BB0F11F460FF1BC095
:101F40006F5F7F4F8F4F9F4F16C0882311F096E928
:101F500011C0772321F09EE8872F762F05C06623D6
:101F600071F096E8862F70E060E02AF09A95660F8F
:101F7000771F881FDAF7880F9695879597F9089548
:101F8000990F0008550FAA0BE0E8FEEF161617068A
:101F9000E807F907C0F012161306E407F50798F0F2
:101FA000621B730B840B950B39F40A2661F0232B0B
:101FB000242B252B21F408950A2609F4A140A69587
:101FC0008FEF811D811D089597F99F6780E870E06C
:101FD00060E008959FEF80EC089500240A9416169F
:101FE000170618060906089500240A941216130607
:101FF000140605060895092E0394000C11F4882395
:1020000052F0BB0F40F4BF2B11F460FF04C06F5FB0
:102010007F4F8F4F9F4F089557FD9058440F551F86
:1020200059F05F3F71F04795880F97FB991F61F05A
:102030009F3F79F087950895121613061406551FD1
:10204000F2CF4695F1DF08C0161617061806991F3D
:10205000F1CF86957105610508940895E894BB2732
:1020600066277727CB0197F908950E9448100C94B2
:10207000FB0F0E94ED0F38F00E94F40F20F0952323
:1020800011F00C94E40F0C94EA0F11240C942F100F
:102090000E940C1070F3959FC1F3950F50E0551FEF
:1020A000629FF001729FBB27F00DB11D639FAA27AD
:1020B000F00DB11DAA1F649F6627B00DA11D661FFC
:1020C000829F2227B00DA11D621F739FB00DA11D1D
:1020D000621F839FA00D611D221F749F3327A00DD7
:1020E000611D231F849F600D211D822F762F6A2F73
:1020F00011249F5750409AF0F1F088234AF0EE0FD8
:10210000FF1FBB1F661F771F881F91505040A9F704
:102110009E3F510580F00C94E40F0C942F105F3F0C
:10212000E4F3983ED4F3869577956795B795F79540
:10213000E7959F5FC1F7FE2B880F911D96958795B8
:1021400097F90895DB018F939F930E94D410BF915C
:10215000AF91A29F800D911DA39F900DB29F900DF6
:1021600011240895A1E21A2EAA1BBB1BFD010DC06C
:10217000AA1FBB1FEE1FFF1FA217B307E407F50737
:1021800020F0A21BB30BE40BF50B661F771F881F13
:10219000991F1A9469F760957095809590959B01A9
:1021A000AC01BD01CF0108950E941B11A59F900DA8
:1021B000B49F900DA49F800D911D11240895002EB1
:1021C000083090F0982F872F762F652F542F432FAC
:1021D000322F22270850F4CF220F331F441F551FE0
:1021E000661F771F881F991F0A95B2F7002D089563
:1021F00097FD1094002E083098F00850232F342FAC
:10220000452F562F672F782F892F912DF4CF1594B6
:10221000979587957795679557954795379527951E
:102220000A95AAF71124002D0895EE0FFF1F0590BF
:10223000F491E02D0994A29FB001B39FC001A39F28
:10224000700D811D1124911DB29F700D811D1124EF
:08225000911D0895F894FFCFE1
:1022580000000000E601460173013302A401820177
:10226800960100000000E303B60377048C03AF0374
:102278009C038D0300000000C30446017704760424
:102288000D0A0048656C6C6F2C20776F726C6421A6
:102298000076616C203D20004C45442073746174C5
:0E22A8007573003A204F4E003A204F46460014
:00000001FF
