:100000000C9458000C9480000C9480000C94800098
:100010000C9480000C9480000C9480000C94800060
:100020000C9480000C9480000C9480000C94800050
:100030000C9480000C9480000C9480000C94800040
:100040000C94E7020C9480000C9480000C948000C7
:100050000C9480000C9480000C9480000C94800020
:100060000C9431030C94800000000000250028004F
:100070002B00040404040404040402020202020229
:10008000030303030303010204081020408001025C
:1000900004081020010204081020000000080002DB
:1000A00001000003040700000000000000005004ED
:1000B00011241FBECFEFD8E0DEBFCDBF11E0A0E01E
:1000C000B1E0ECEEFBE002C005900D92A833B10761
:1000D000D9F722E0A8E3B1E001C01D92AE30B2072B
:1000E000E1F710E0C8E5D0E004C02197FE010E94CE
:1000F000EE05C735D107C9F70E9471040C94F405C9
:100100000C94000090E0FC01E656FF4F2491FC01A6
:10011000EA57FF4F3491FC01EE58FF4FE491EE2374
:10012000B1F0222339F02330E9F090F4213001F1CD
:10013000223011F1F0E0EE0FFF1FE859FF4FA591BB
:10014000B4918FB7F894EC913E2B3C938FBF0895F8
:100150002730A9F02830C9F0243061F78091800061
:100160008F7D03C0809180008F7780938000E2CFE5
:1001700084B58F7784BDDECF84B58F7DFBCF809132
:10018000B0008F778093B000D5CF8091B0008F7D85
:10019000F9CF08950895AF92BF92CF92DF92EF9278
:1001A000FF920F931F93CF93DF936C017B018B0121
:1001B000040F151FEB015E01AE18BF08C017D10771
:1001C00059F06991D601ED91FC910190F081E02DFB
:1001D000C6010995892B79F7C501DF91CF911F9150
:1001E0000F91FF90EF90DF90CF90BF90AF90089568
:1001F0003FB7F8948091E2019091E301A091E4016E
:10020000B091E50126B5A89B05C02F3F19F00196D6
:10021000A11DB11D3FBFBA2FA92F982F8827BC0160
:10022000CD01620F711D811D911D42E0660F771F88
:10023000881F991F4A95D1F708958F929F92AF9288
:10024000BF92CF92DF92EF92FF924B015C010E942E
:10025000F8006B017C010E94F8006C197D098E0981
:100260009F09683E734081059105A8F321E0821A39
:100270009108A108B10888EEC80E83E0D81EE11CE1
:10028000F11C81149104A104B10429F7FF90EF90AF
:10029000DF90CF90BF90AF909F908F90089585EDA5
:1002A0008093BC008091BC0084FDFCCF1092EC01D7
:1002B000089520919A01260F3327331F21323105EB
:1002C000ECF42091EC01FC0190E080E0243069F036
:1002D00082E00895A0919A012191AC0146585E4FA9
:1002E000A40FB52FB11D2C930196861798F380911A
:1002F0009A01680F60939A0180E0089581E0089563
:100300000895E091F0018091EF01E81730F4F0E0FA
:10031000E65AFE4F808190E008958FEF9FEF089599
:100320009091F0018091EF012FEF3FEF981748F483
:10033000E92FF0E0E65AFE4F208130E09F5F909376
:10034000F001C90108958091EF019091F001891B9E
:10035000990B0895CF92DF92EF92FF920F931F9324
:10036000CF93DF937C01CB018A0120915901222395
:1003700089F0EB016B01C40ED51ECC15DD0569F0CB
:100380006991D701ED91FC910190F081E02DC701B9
:100390000995F3CF642F0E945901C801DF91CF91D5
:1003A0001F910F91FF90EF90DF90CF900895CF9322
:1003B000DF931F92CDB7DEB76983209159012223C5
:1003C000F9F02091ED01203258F021E030E0FC01FD
:1003D0003383228390E080E00F90DF91CF910895E6
:1003E0008091EE01E82FF0E0E75CFE4F9981908369
:1003F0008F5F8093EE018093ED0181E090E0ECCF80
:1004000061E0CE0101960E945901F7CFCF93FC0124
:10041000C48121E020935901C09338011092EE016C
:100420001092ED018485682B85EF91E00E94D70141
:100430009091ED01913208F03FC08091EC01811163
:10044000FCCF82E08093EC0181E08093EB018FEFA1
:100450008093BD011092DF019093DE01A9E3B1E02A
:10046000EEEBF1E080E098132FC01092E001809154
:10047000E001CC0FC82BC093E0018091EA018130EC
:1004800039F51092EA018091E0018093BB008091E0
:10049000BC0083FDF8CF85EC8093BC008091EC011B
:1004A0008230E1F38091BD018F3F31F08091BD0139
:1004B000803211F08091BD011092EE011092ED0199
:1004C00010925901CF9108952D9121938F5FCBCF39
:1004D00085EEE2CF089590E080E008950F931F939A
:1004E000CF938C01C62F0E9406026C2F6460C80156
:1004F0000E9406026C2F6B7FC8010E94060283ECEB
:1005000090E00197F1F7CF911F910F9108950F930C
:100510001F93CF93DF938C01D62FC42F607F642B62
:100520000E946E0280E1D89FB00111246C2BC8019B
:10053000DF91CF911F910F910C946E02CF93DF93B7
:10054000CDB7DEB728970FB6F894DEBF0FBECDBF8C
:1005500098E0E0E0F1E0DE01119601900D929A95AD
:10056000E1F790910902981708F48FEF90E0880F57
:10057000991F21E030E02C0F3D1F820F931FFC01DB
:100580006081606840E081E092E028960FB6F894C0
:10059000DEBF0FBECDBFDF91CF910C94870240E04C
:1005A00061E081E092E00E9487028BE39FE1019786
:1005B000F1F780910A02882319F080E00C949E02E2
:1005C000089541E00E94870281E090E008951F9223
:1005D0000F920FB60F9211242F933F938F939F93F7
:1005E000AF93BF938091F1019091F201A091F3013B
:1005F000B091F4013091E10123E0230F2D3758F53C
:100600000196A11DB11D2093E1018093F10190930A
:10061000F201A093F301B093F4018091E201909173
:10062000E301A091E401B091E5010196A11DB11D86
:100630008093E2019093E301A093E401B093E5017C
:10064000BF91AF919F918F913F912F910F900FBECE
:100650000F901F90189526E8230F0296A11DB11D3B
:10066000D2CF1F920F920FB60F9211242F933F9368
:100670004F935F936F937F938F939F93AF93BF93AA
:10068000EF93FF938091B900887F803609F44AC0C8
:10069000F0F5883209F4A7C018F5803109F49BC041
:1006A000B8F4882309F4F9C0883009F494C0FF91A4
:1006B000EF91BF91AF919F918F917F916F915F91DA
:1006C0004F913F912F910F900FBE0F901F90189553
:1006D000883109F488C0803251F78093BD0114C07D
:1006E000803409F49DC040F48033B9F38833F9F6BF
:1006F0008093BD0185ECB0C0803509F485C0883594
:1007000009F496C0883499F60E944F01D0CF8839F9
:1007100009F48CC038F5883729F050F4883611F088
:10072000803729F683E08093EC011092BC0157C01A
:10073000883809F47BC0803919F0803809F0B7CFC8
:100740008091BC01803208F071C0E091BC0181E071
:100750008E0F8093BC018091BB00F0E0E456FE4F09
:1007600080833DC0803B39F0E0F4803A09F479C0E1
:10077000883A09F09CCF84E08093EC0110929B01B1
:1007800010929A01E091E801F091E90109958091B8
:100790009A0181110FC081E080939A0110927A0131
:1007A00009C0803C09F4A6CF883C09F4A3CF883B5C
:1007B00009F07DCFE0919B0181E08E0F80939B013A
:1007C000F0E0E658FE4F80818093BB0090919B0142
:1007D00080919A0129C08091E0018093BB0085EC53
:1007E0008093BC0064CF9091DF018091DE01981767
:1007F00058F5E091DF0181E08E0F8093DF01F0E09A
:10080000E254FE4F8081E9CFE091DF0181E08E0F5D
:100810008093DF018091BB00F0E0E254FE4F8083C3
:100820009091DF018091DE019817C8F285E8D8CF5A
:10083000E091DF0181E08E0F8093DF018091BB00AA
:10084000F0E0E254FE4F80838091EB0181115CCF98
:1008500081E08093EA0184EA8093BC001092EC016D
:1008600026CF85EC8093BC001092EC018091BC01F6
:10087000803230F4E091BC01F0E0E456FE4F10828B
:100880006091BC0170E0E091E601F091E7018CE934
:1008900091E009951092BC010ACF1092BD0134CFAE
:1008A000E5EFF1E01382128288EE93E0A0E0B0E081
:1008B00084839583A683B7838CE091E091838083C2
:1008C000E1E0F2E0138212828EE191E09183808375
:1008D000118687E2848380E1828782E083871486A1
:1008E0000895CF93DF93CDB7DEB7A1970FB6F894F5
:1008F000DEBF0FBECDBF789484B5826084BD84B561
:10090000816084BD85B5826085BD85B5816085BD0A
:1009100080916E00816080936E00109281008091C2
:10092000810082608093810080918100816080934A
:100930008100809180008160809380008091B1006F
:1009400084608093B1008091B00081608093B0009A
:1009500080917A00846080937A0080917A0082602E
:1009600080937A0080917A00816080937A008091F0
:100970007A00806880937A001092C1001092F00192
:100980001092EF011092EE011092ED011092EC0125
:1009900081E08093EB011092EA0182E10E948200E3
:1009A00083E10E9482008091B9008E7F8093B9001C
:1009B0008091B9008D7F8093B90088E48093B8005E
:1009C00085E48093BC0089EC90E09093E9018093EA
:1009D000E8018AEC90E09093E7018093E6011092A1
:1009E000060280910C02823018F098E09093060283
:1009F0008093090262E370E080E090E00E941D01B4
:100A000060910D0281E092E00E94060268EE73E0C0
:100A100080E090E00E941D0160E381E092E00E948E
:100A20006E020BE416E4C8010197F1F760E381E080
:100A300092E00E946E02C8010197F1F760E381E045
:100A400092E00E946E0283E592E00197F1F760E286
:100A500081E092E00E946E0260910602606240E0D6
:100A600081E092E00E94870284E08093070240E0E8
:100A70006CE081E092E00E9487020E94CF0282E057
:100A80008093080240E066E081E092E00E948702E5
:100A900040E062E081E092E00E9487028BE39FE108
:100AA0000197F1F788E080930D0260E081E092E029
:100AB0000E94060280E00E949E024DE050E066E245
:100AC00071E081E092E00E94CB0081E00E949E02F2
:100AD00042E050E064E371E081E092E00E94CB00EC
:100AE00060ED77E080E090E00E941D010E94CF025F
:100AF00088EEC82E83E0D82EE12CF12C9AE0492E06
:100B0000512C612C712C20E0A22E20E0B22E80E02E
:100B10000E949E0281E00E949E022FB7F89460918D
:100B2000F1017091F2018091F3019091F4012FBFD6
:100B3000A70196010E94CC0519A28E010F5D1F4FDF
:100B4000CA01B901A30192010E94CC05605DF801C0
:100B500062938F01211531054105510589F73097C1
:100B600061F001900020E9F73197AF01401B510B74
:100B7000B80181E092E00E94CB0064E170E080E087
:100B800090E00E941D010E94CF02A114B10409F45B
:100B9000BECF0E940000BBCFA1E21A2EAA1BBB1B36
:100BA000FD010DC0AA1FBB1FEE1FFF1FA217B30739
:100BB000E407F50720F0A21BB30BE40BF50B661F4F
:100BC000771F881F991F1A9469F760957095809513
:100BD00090959B01AC01BD01CF010895EE0FFF1F61
:0C0BE0000590F491E02D0994F894FFCFEB
:100BEC00000040001400540000000000D701AA01CE
:100BFC006B028001A3019001810100000000E10261
:100C0C00CB006B026A0248656C6C6F2C20776F729C
:080C1C006C642100486900002E
:00000001FF
